:020000040800F2
:10000000B8040020010100085B1B0008CD1900089E
:10001000591B0008C506000809210008000000005F
:100020000000000000000000000000005F1B00084E
:10003000AD070008000000005D1B0008DD1B000884
:100040001B0100081B0100081B0100081B01000820
:100050001B0100081B0100081B0100081B01000810
:100060001B0100081B0100081B0100081B01000800
:100070001B0100081B0100081B0100081B010008F0
:100080001B0100081B0100081B0100081B010008E0
:100090001B0100081B0100081B0100081B010008D0
:1000A0001B0100081B0100081B0100081B010008C0
:1000B000791C00081B0100081B0100081B01000837
:1000C0001B0100081B0100081B0100081B010008A0
:1000D0001B010008FD2000081B0100081B0100088F
:1000E0001B0100081B0100081B010008DFF80CD0F1
:1000F00000F0D6FA00480047392A0008B80400206A
:100100000648804706480047FEE7FEE7FEE7FEE7B1
:10011000FEE7FEE7FEE7FEE7FEE7FEE7311C00082C
:10012000ED000008202A04DB203A21FA02F0002129
:10013000704721FA02F3D040C2F1200291400843F7
:1001400019467047D2B201E000F8012B491EFBD2DC
:1001500070470022F6E710B513460A4604461946D2
:10016000FFF7F0FF204610BD2DE9FE4F804681EAE3
:100170000300C00F0C46009021F0004123F0004521
:10018000B8EB0200A94105D24046214690461C46E4
:100190000B46024623F00040104347D0270DC7F31B
:1001A0000A00C3F30A510290401A019040286BDA0A
:1001B000C3F3130040F4801B0098924620B1002343
:1001C000D2EB030A63EB0B0B01985946C0F14002D6
:1001D000504600F0B6F906460D4650465946019A7B
:1001E00000F0BEF910EB08006141002487EA1152CB
:1001F00084EAE7731A4340D0009A62B3019A012A55
:100200004FEA075215DC001B61EB02014FF0004280
:1002100002EA0752CDE90042001C41F58011324646
:100220002B4600F0BEF903B0BDE8F08F40462146F2
:10023000F9E7001B61EB0201001C41F58013001877
:100240005B412018A2F5001747EB030140EAD57087
:10025000B6196D4111E06D084FEA360645EAC075E2
:100260004FEA0752001B61EB0201001C41F58011AF
:1002700049084FEA30000019514132462B4603B07D
:10028000BDE8F04F00F07EB9009801224000002345
:10029000D0EB020263EBE073009821464FEAE07472
:1002A000B8EB000061EB0401E9E783F000435BE792
:1002B00081F0004158E72DE9FE4F81EA030404F084
:1002C000004421F0004100944FF0000B23F0004364
:1002D00050EA01045ED052EA03045BD0C3F30A542F
:1002E000C1F30A552C44A4F2F3340194A0FB025448
:1002F000C1F3130141F48011C3F3130343F48013DA
:1003000001FB024400FB034E840A970A44EA81542D
:1003100047EA8357A4FB076802958D0A05FB07850A
:100320004FEA932C04FB0C542705029D4FEA065814
:1003300047EA1637B5EB08056EEB070C870E920EF1
:1003400047EA811742EA8312A7FB0201B6EB0B01D1
:1003500064EB00042B0D43EA0C335E1844EB1C5095
:10036000DA465146E7FB0201C5F313044FEA0B33AB
:1003700043EA14534FEA0432019C43EA0603A4F112
:100380000C040294009CCDE900B400F00AF903B01B
:10039000BDE8F08F00200146F9E72DE9F04D81EA34
:1003A000030404F0004B21F0004514464FF0000A0E
:1003B00023F0004150EA050220D054EA01021DD08A
:1003C000C5F30A570246C5F31303C1F31300C1F383
:1003D0000A5640F4801543F48013A7EB0608101B5F
:1003E000D64608F2FD3873EB050002D308F1010888
:1003F00001E092185B41B8F1000F03DA00200146DA
:10040000BDE8F08D00204FF48011064684460EE0D2
:10041000171B73EB050705D3121B63EB050306439C
:100420004CEA010C49084FEA300092185B4150EA4F
:100430000107EDD152EA030012D082EA040083EAF8
:100440000501084305D0101BAB4106D20122002351
:1004500006E000224FF0004302E06FF0010253106B
:100460001AEB06004CEB085110EB0A0041EB0B01B4
:10047000BDE8F04D00F086B80EB5C10F80EAE0701F
:100480000844CA07002140F233438DE80E000A46B3
:100490000B4600F086F803B000BD0EB540F23341C4
:1004A00002910021CDE900110A460B4600F079F8CF
:1004B00003B000BD30B50B460146002020220124C8
:1004C00009E021FA02F59D4205D303FA02F5491B22
:1004D00004FA02F52844151EA2F10102F1DC30BD38
:1004E0002DE9F05F0546002092469B468846064669
:1004F000814640241BE02846414647462246FFF7F6
:1005000011FE53465A46C01A914110D3114618465F
:10051000224600F016F82D1A67EB01084F462246D6
:100520000120002100F00DF817EB00094E41201EBC
:10053000A4F10104DFDC484631462A464346BDE8C3
:10054000F09F202A04DB203A00FA02F100207047D5
:100550009140C2F1200320FA03F319439040704701
:10056000202A06DBCB17203A41FA02F043EAE07377
:1005700006E041FA02F3D040C2F120029140084364
:100580001946704710B5141E73F1000408DA401CB8
:1005900041F1000192185B411A4301D120F00100A2
:1005A00010BD2DE9F04D92469B4611B1B1FA81F292
:1005B00002E0B0FA80F220329046FFF7C2FF044614
:1005C0000F4640EA0A0041EA0B0153465A460843E7
:1005D00013D0114653EA010019D0C8F14002504629
:1005E000FFF7A0FD05460E46504659464246FFF726
:1005F000A8FF084305D0012004E020463946BDE8A5
:10060000F08D0020054346EAE0762C4337430A98F4
:100610006305E40AA0EB08000022FD0A44EA4754FF
:100620000A3002D500200146E9E7010510196941A9
:10063000DDE9084500196941BDE8F04DA2E7C1F3C5
:100640000A52C1F3130140F2FF3341F480119A4280
:1006500002DA00200146704740F233439A42A2F288
:10066000334202DC5242FFF75DBDFFF76ABF000074
:1006700030B5041E71F1000404DB4FF00044404229
:1006800064EB0101141E73F1000405DB1C464FF0FE
:100690000043524263EB0403994208BF904230BDCD
:1006A000064C074D06E0E06840F0010394E80700BF
:1006B00098471034AC42F6D3FFF71CFDD82B000846
:1006C000F82B0008FEE700002DE9FF4107462B4804
:1006D0002B4A08440021CDE902122A4ACDE9001232
:1006E000294A514202F044FA4FF03332274BFFF7C8
:1006F00054FE274C05460E46607901281DD1E0685E
:10070000052803DA401CE060BDE8FF810F280ADA03
:10071000401C0B46E060D4E906012A46FFF724FDA1
:10072000C4E90601F0E7D4E906010022194BFFF7FE
:1007300034FEC4E906010020607100F07FF92061F9
:100740006169411A962916D8D4E90623284631460C
:10075000FFF7ABFD05460E463846FFF79EFE0E4AF4
:100760000E4BFFF7A8FDCDE9005602460B460CA044
:1007700001F0CCFC20696061C6E70000010080FF49
:1007800000004940000049C03D0A37003333F33FC1
:1007900000000020000024409A9999999999693F96
:1007A000252E32662A252E326600000070477047DB
:1007B00010B590F821100024022903D00421816390
:1007C00001243DE001680A6822F00E020A60016817
:1007D0000A6822F001020A601A4A0168914201D1B6
:1007E000012121E0174A1432914201D110211BE06E
:1007F000144A2832914201D1891515E0114A3C3240
:10080000914201D189140FE00E4A5032914202D137
:100810004FF4803108E00B4A6432914202D14FF428
:10082000801101E04FF08071064A083A51600121C1
:1008300080F82110002180F82010416B01B1884719
:10084000204610BD080002402DE9F84FDFF8B891AE
:10085000002409F1040A0AF1040B23460F270BF1C7
:10086000040EC9E00125A5402A40AA427DD1674E69
:10087000D1F804C0ACEB0608B44532D014DCBCF1AE
:10088000030F3AD009DCBCF1000F2AD0BCF1010FF4
:100890001CD0BCF1020F31D11DE0BCF1110F17D0FB
:1008A000BCF1120F2AD119E0B8F5881F19D006DC67
:1008B000B8F5803F15D0B8F5801F1FD111E0B8F50D
:1008C000001F0ED0B8F5041F18D10AE0CB6815E060
:1008D000CB681B1D12E0CB6808330FE0CB680C33EC
:1008E0000CE08B682BB1012B4FF0080303D045615E
:1008F00004E0042302E0056100E00023FF2A01D8A0
:10090000064601E000F104064FEA840501D9A5F18D
:100910002005D6F8008007FA05FC28EA0C0803FA3F
:1009200005F548EA0508C6F800804D68ED0062D577
:10093000374DAE6946F00106AE61AD6924F003069D
:1009400005F001050095334D06EB050CDCF8085069
:10095000A607360F07FA06F825EA0805DFF8B8807B
:10096000404503D14FF0000817E044E0DFF8AC80C9
:10097000404502D14FF001080FE0DFF8A480404568
:1009800002D14FF0020808E0DFF89880404502D11C
:100990004FF0030801E04FF0040808FA06F848EAAF
:1009A0000508CCF808804D68D9F80060ED034D4685
:1009B00001D5164300E096432E604D68DAF80060DA
:1009C000AD03554601D5164300E096432E604D68B1
:1009D000DBF80060ED025D4601D5164300E096436A
:1009E0002E604D68DEF80060AD02754601D51643F5
:1009F00000E096432E60641C0D682A46E5407FF4B3
:100A000031AFBDE8F88F0000000401400000111074
:100A1000001002400000014000080140000C0140AD
:100A200000100140001401408068084000D00120FF
:100A300070470AB1016170470904FBE7014880680B
:100A400070470000200000200248816802781144AD
:100A50008160704720000020074810B5016841F010
:100A600010010160032000F075F8002000F006F886
:100A700000F024F8002010BD0020024070B50D4D9C
:100A800004464FF47A712878B1FBF0F00A490968FE
:100A9000B1FBF0F000F0ECFA48B9102C07D20022BC
:100AA0002146501E00F036F800206C6070BD012019
:100AB00070BD0000200000202C0000200C4808B56C
:100AC000816941F001018161816901F001010091B9
:100AD000C16941F08051C161C06900F0805000904F
:100AE0000448416821F0E06141F08061416008BD47
:100AF0000010024000000140002809DB00F01F0246
:100B0000012191404009800000F1E020C0F800116F
:100B100070470000F0B40E4B1B680C46C3F3022371
:100B2000C3F10705042D00D90425191D072901D299
:100B3000002300E0DB1E012606FA05F1491E2140D4
:100B400099409E40761E16403143F0BC01F0EEBA4B
:100B50000CED00E0064900F0070208684FF6FF03BD
:100B6000184040EA0220034A104308607047000022
:100B70000CED00E00000FA052DE9F0470F460500F6
:100B800061D0434E306800F00700B84209D23068A7
:100B900020F0070038433060306800F00700B842AA
:100BA00051D128683B4C810712D5400703D56068B6
:100BB00040F4E06060602878000703D5606840F486
:100BC000605060606068A96820F0F00008436060D1
:100BD0002878C00728D06868012810D0216802282A
:100BE00010D0890700292EDA616821F00301014342
:100BF0006160FFF723FF804641F288390DE02168EC
:100C00008903EFE78901EDE7FFF718FFA0EB080183
:100C1000494502D90320BDE8F0876068696800F0A3
:100C20000C00B0EB810FEFD1306800F00700B84244
:100C30000BD9306820F0070038433060306800F08E
:100C40000700B84201D00120E5E72878400705D524
:100C50006068E96820F4E060084360602878000775
:100C600006D56068296920F4605040EAC1006060E0
:100C700000F038F86168084AC1F30311515CC840BC
:100C80000649086006480068FFF7F8FE0020C2E742
:100C90000020024000100240C02B00082C00002061
:100CA000240000200448054900684968044AC1F34B
:100CB0000221515CC84070472C0000200010024007
:100CC000D02B00080448054900684968044AC1F36C
:100CD000C221515CC84070472C0000200010024027
:100CE000D02B000812A185B00FC98DE80F0014A009
:100CF000144A006804905168134801F00C03042B57
:100D000010D0082B0ED1C1F38343C9031DF8030093
:100D10000AD5516804AAC1F34041515C0A4A5043C4
:100D2000B0FBF1F005B0704708494843FAE700000E
:100D300002030405060708090A0B0C0D0E0F10101C
:100D4000010200000010024000127A0000093D007C
:100D50002DE9F84F040070D02078C04DC00749D06D
:100D60006868C0F38100012807D06868C0F381007B
:100D7000022809D16868C00306D52868800339D5E0
:100D800060680028E7D035E06068B0F5803F0BD0A0
:100D900010B1B0F5A02F11D0286820F48030286061
:100DA000286820F4802002E0286840F48030286021
:100DB000606890B1FFF742FE06460AE0286840F4FA
:100DC00080202860F0E700BFFFF738FE801B642812
:100DD00073D828688003F7D50CE0FFF72FFE06468E
:100DE00005E000BFFFF72AFE801B6428F0D82868C2
:100DF0008003F7D420789A4E80074FF001094FF016
:100E0000000839D5686810F00C0F07D06868C0F387
:100E10008100022809D16868C00306D428688007C9
:100E200014D52069012808D110E02069B0B1C6F8B6
:100E30000090FFF703FE074605E00AE1FFF7FEFD1D
:100E4000C01B0228C4D828688007F7D528686169C4
:100E500020F0F80040EAC10028600DE0C6F80080EC
:100E6000FFF7ECFD074604E0FFF7E8FDC01B022892
:100E700023D828688007F7D4207800072CD5794834
:100E8000A169D9B1C0F80090FFF7D8FD074604E08A
:100E9000FFF7D4FDC01B02280FD8686A8007F7D57A
:100EA00071484FF4FA510068B0FBF1F0009000BFB8
:100EB0000098411E0091FAD20EE080E0C0F8008058
:100EC000FFF7BCFD074604E0FFF7B8FDC01B022892
:100ED00075D8686A8007F7D42078400760D5E8693C
:100EE0000027C00008D4E86940F08050E861E86954
:100EF000012700F0805000905C480168C90513D4B8
:100F00000168834641F480710160FFF797FD8246D6
:100F100006E000BFFFF792FDA0EB0A0064284ED860
:100F2000DBF80000C005F5D5E06801280AD008B15B
:100F3000052813D0286A20F001002862286A20F0D2
:100F4000040002E0286A40F001002862E06841F2F3
:100F5000883B98B1FFF772FD82460BE0286A40F0AB
:100F600004002862EEE700BFFFF768FDA0EB0A016E
:100F700059455AD8286A8007F6D50CE0FFF75EFD80
:100F8000824605E0FFF75AFDA0EB0A0159454CD80F
:100F9000286A8007F6D41FB1E86920F08050E86124
:100FA000E06988B36968C1F38101022944D002284D
:100FB000C6F8608004D0FFF741FD044638E034E015
:100FC000FFF73CFD074604E0FFF738FDC01B022891
:100FD0002BD828688001F7D4206AB0F5803F05D16E
:100FE0006868A16820F4003008436860D4E908010B
:100FF0000843696821F4741108436860C6F860907A
:10100000FFF71CFD044606E025E000BFFFF716FDD4
:10101000001B022809D828688001F7D51BE000BF13
:10102000FFF70CFD001B022802D90320BDE8F88F52
:1010300028688001F4D40EE00128F7D06868226A9D
:1010400000F48031914204D1616A00F4701088424A
:1010500001D00120EAE70020E8E70000001002408C
:1010600000004242800442422C00002000700040F8
:1010700010B5401EB0F1807F01D3012010BD4FF0AC
:10108000E02460610F21601701F050F80020A0619A
:1010900007202061002010BD7047704770B590F8A0
:1010A0003C20012A19D0012400F83C4F0222427052
:1010B00050F83C3C5A689D6822F070060A684968FE
:1010C000324325F0800529435A6050F83C2C91604A
:1010D000447000210170084670BD022070BD10B53B
:1010E000040003D094F83D0010B107E0012010BDCA
:1010F000002084F83C00204600F00CF8022084F820
:101100003D00211D206800F0BDFD012084F83D0058
:10111000002010BD08B50068B0F1804F12D10A4818
:10112000C16941F00101C161C069002200F0010004
:10113000009011461C20FFF7EDFCBDE808401C2084
:10114000FFF7DABC08BD0000001002400168CA6861
:1011500042F00102CA600068816801F007010629B7
:1011600003D0016841F0010101600020704770B5B3
:10117000044690F83C00012817D0012584F83C5023
:10118000022084F83D002068826822F0770222F471
:101190007F4282600868502830D00DDC20284DD076
:1011A00005DC98B310283BD148E0022070BD302800
:1011B00044D0402834D139E0602828D0702806D0A7
:1011C000B0F5805F2CD0B0F5005F29D10AE0CB6884
:1011D000D1E90121206800F098FD2068816841F084
:1011E000770109E0CB68D1E90121206800F08DFD8D
:1011F0002068816841F48041816011E0CA684968D3
:10120000206800F037FE5021206807E016E0CA6829
:101210004968206800F03FFE6021206800F07FFDF3
:1012200084F83D50002084F83C0070BDCA684968CD
:10123000206800F01FFE40212068EFE72268014689
:101240001046EBE7704770B50446006801694FF03F
:101250000005C943890715D4C168C943890711D45A
:10126000E91E0161012020772068806980072046FF
:1012700002D0FFF7E7FF04E000F0BCF8204600F0E2
:101280003EF9257720680169C943490717D4C16829
:10129000C943490713D46FF004010161022020778C
:1012A0002068806910F4407F204602D0FFF7CAFF13
:1012B00004E000F09FF8204600F021F9257720682F
:1012C0000169C943090716D4C168C943090712D483
:1012D0006FF008010161042020772068C069800751
:1012E000204602D0FFF7AEFF04E000F083F820466E
:1012F00000F005F9257720680169C943C90617D4AC
:10130000C168C943C90613D46FF0100101610820F8
:1013100020772068C06910F4407F204602D0FFF794
:1013200091FF04E000F066F8204600F0E8F8257729
:1013300020680169C943C90708D1C168C943C90701
:1013400004D1891E0161204600F020F9206801695E
:10135000C943090609D4C168C943090605D46FF019
:10136000800101612046FFF797FE20680169C943AB
:10137000490609D4C168C943490605D46FF0400144
:101380000161204600F00EF920680169C943890611
:101390000BD4C168C943890607D46FF020010161ED
:1013A0002046BDE87040FFF778BE70BD00B585B03F
:1013B000002100910191029103910068B0F1804FEA
:1013C00011D10A48816941F00401816180690221DB
:1013D00000F0040004900120CDE90001039069466B
:1013E0000348FFF731FA05B000BD000000100240CD
:1013F00000080140704770B5044690F83C000D4667
:1014000001280DD0012684F83C60022084F83D00BC
:1014100042B1042A18D0082A2AD00C2A4DD139E02A
:10142000022070BD206800F083FC2068816941F0D3
:10143000080181612068816921F0040181612068CF
:1014400081692A69114311E0206800F099FC206845
:10145000816941F4006181612068816921F48061C2
:101460008161206881692A6941EA0221816124E061
:10147000206800F0B1FC2068C16941F00801C16139
:101480002068C16921F00401C1612068C1692A692D
:10149000114311E0206800F0CBFC2068C16941F4E1
:1014A0000061C1612068C16921F48061C161206867
:1014B000C1692A6941EA0221C16184F83D600020C6
:1014C00084F83C0070BD10B5040003D094F83D00D2
:1014D00010B107E0012010BD002084F83C00204638
:1014E00000F00CF8022084F83D00211D206800F077
:1014F000C9FB012084F83D00002010BD70477047F3
:1015000010B504460068012200F0F2FB094920688A
:10151000884203D1416C41F40041416420688168F4
:1015200001F00701062903D0016841F001010160C3
:10153000002010BD002C014010B5044600680022B8
:1015400000F0D6FB104B41F2111120688A1098422E
:1015500009D1036A0B4206D1036A134203D1436CDB
:1015600023F4004343642068036A0B4206D1016AF6
:10157000114203D1016821F001010160012084F8CA
:101580003D00002010BD0000002C01400068B0F1BB
:10159000804F03D102488168491C81607047000078
:1015A000000000207047704770B50268044610685C
:1015B000D168536910F00F0F50D003F0010501F40A
:1015C000907635435DD0C20705D0CA0503D5E26BDE
:1015D00042F00102E263420705D5DA0703D0E26B6D
:1015E00042F00202E263820705D5DA0703D0E26B1C
:1015F00042F00402E263020705D5DA0703D0E26B8A
:1016000042F00802E263E26B002A33D0800604D580
:10161000880602D5204600F066FC20684069E16B30
:10162000C0F38010090700D428B3204600F04DFC19
:101630002068416949061AD5416921F0400141619C
:10164000606BA0B11B494163606BFFF7B1F80028E4
:1016500010D0606B416BBDE870400847830610D521
:101660008B060ED52046BDE8704000F03CBC2046FD
:10167000FFF799FF70BD2046FFF795FF0020E0635C
:1016800070BD030606D50B0604D52046BDE87040A4
:1016900000F0D0BC4006F3D54806F1D5D16820460D
:1016A00021F04001D160202184F8391000F047F981
:1016B00070BD0000BB1E000870B5040004D094F893
:1016C0003900002510B106E0012070BD84F83850C3
:1016D000204600F023F8242084F839002068C168EF
:1016E00021F40051C160204600F048FC20680169E7
:1016F00021F4904101612068416921F02A01416192
:101700002068C16841F40051C160E563202084F87D
:10171000390084F83A00002070BD000030B585B073
:1017200000240094019402940394006818498842AC
:101730002CD11848816941F480418161816901F4AB
:1017400080410491816941F0040181618069124DF9
:1017500000F0040004904FF400700090022001900B
:101760000320039069462846FFF76EF82815CDE957
:101770000004694628460294FFF766F800221146E5
:101780002520FFF7C7F92520FFF7B6F905B030BDD2
:1017900000380140001002400008014090F83A3043
:1017A000202B22D1F9B1F2B190F83830012B1CD0A6
:1017B00081628285C2850021C163222280F83A209D
:1017C00080F838100168CA6842F48072CA60016803
:1017D0004A6942F001024A610068C16841F0200193
:1017E000C160002070470120704702207047000050
:1017F000224830B40378002401210222212B29D071
:1018000012DC4FF00405112B1ED008DC4FF003054D
:10181000012B19D0022B19D0032B23D118E0122B46
:1018200014D0132B1ED113E0322B23D006DC222B35
:1018300013D0232B14D0312B14D119E0332B1BD010
:10184000FF2B0FD144700DE0457004E0457005E0BA
:10185000457006E04170C47004E04170C17001E061
:101860004170C27030BC012204490548FFF796BFA1
:101870004270F0E74270F1E74270F2E700000020AA
:10188000740000202DE9F843044690F839001F4603
:1018900016460D46202850D1A5B19EB194F83800C7
:1018A00001284AD0012084F838004FF00008C4F81D
:1018B0003C80212084F83900FFF7C0F8A6848146D7
:1018C000E68426E00120BDE8F883E08C401EE08439
:1018D000A0684B46B0F5805F4FF000024FF08001EA
:1018E0002046009703D000F0D6FBE8B90DE000F0E9
:1018F000D2FBC8B928882168C0F308004860206975
:1019000008B16D1C05E0AD1C03E0216815F8010B62
:101910004860E08C0028D8D14B4600224021204668
:10192000009700F0B8FB08B10320CCE7202084F832
:10193000390084F838800020C5E70220C3E77047EB
:1019400070B51F4E002240213046FFF772F880210B
:101950003046FFF769F8002831D100211948FFF718
:10196000EBFD00242546012240213046FFF761F8B7
:101970006400002240213046FFF75BF880213046AA
:10198000FFF752F800B1641C6D1CEDB2182DEAD3BC
:10199000012240213046FFF74CF884F40004002275
:1019A00040213046FFF745F8074821468068FEF79A
:1019B0008BFEBDE8704000210248FFF7A1BD70BD5D
:1019C000000C01403400002000000020FEE7000071
:1019D0002DE9F04186B00024274800940194029438
:1019E0000394816941F020018161816901F0200146
:1019F0000491816941F004018161816901F0040170
:101A00000491816941F00801816180691B4F00F0F8
:101A100008000490002206213846FFF70AF8DFF894
:101A20006080002240214046FFF703F80620012590
:101A30000226CDE90005CDE9024669463846FEF7A3
:101A400003FF18208DE8310069463846FEF7FCFE9A
:101A50004020CDE90005CDE9024669464046FEF743
:101A6000F3FE8020CDE90004694640460294FEF76B
:101A7000EBFE06B0BDE8F081001002400008014016
:101A8000000C014010B58EB000240794089409940E
:101A90000A940B941C2168460C94FEF75AFB1F48CD
:101AA0004FF0804101604721C0E901144FF47A7181
:101AB000C0E9031480218161FFF711FB08B1FEF733
:101AC00076FE4FF48050079007A91448FFF74FFBAC
:101AD00008B1FEF76CFE1148FFF7F5FC08B1FEF700
:101AE00066FE0B940BA90D480C94FFF7D7FA08B1CA
:101AF000FEF75DFE602000904FF4FA70CDE901041E
:101B00000022694605480494FFF775FC08B1FEF70A
:101B10004EFE0248FFF74AFC0EB010BD3400002014
:101B20000C4810B50A4901604FF4E13141600021D1
:101B300081600C22C160C0E904128161C161FFF7BC
:101B4000BBFD002803D0BDE81040FEF730BE10BD3D
:101B50000038014074000020FEE77047704770476E
:101B600070B5104C2279012A18D10F4A1368D86237
:101B7000D06012684008506389B100220B4D0221E9
:101B80002846FEF756FF00210748FFF7B9FC002260
:101B900004212846FEF74DFF0020207170BD012270
:101BA000ECE70000000000203400002000080140A5
:101BB00010B5012204210648FEF73BFF002105482D
:101BC000FFF7BAFC0448012101710021816010BDBA
:101BD000000801403400002000000020FEF734BF60
:101BE00030B58FB028216846FEF7B3FA14210AA851
:101BF000FEF7AFFA01210804CDE900100024029499
:101C000002250491CDE907504FF4E0100990684691
:101C1000FFF79EF80F20CDE90A056802CDE90C40D8
:101C200002210AA80E94FEF7A7FF0FB030BD0000F6
:101C30000D48016841F00101016041680B4A114003
:101C4000416001680A4A11400160016821F4802165
:101C50000160416821F4FE0141604FF41F01816081
:101C60000449C00308607047001002400000FFF8FC
:101C7000FFFFF6FE08ED00E00148FFF7E4BA0000C0
:101C800034000020F0B50268164B174C174D4FF08A
:101C90008047984205D0B84203D0A04201D0A84264
:101CA00003D122F070064A683243984205D0B84208
:101CB00003D0A04201D0A84203D122F44074CA68E4
:101CC00022434C6922F08002224302608A68C26289
:101CD0000A688262984201D1096901630121416168
:101CE000F0BD0000002C014000040040000800404E
:101CF00010B501F01F030121046A99408C4304626E
:101D0000016A9A401143016210BD10B5846842EA2D
:101D1000032224F47F440A432243826010BD826878
:101D200022F070020A4342F0070181607047000010
:101D300030B5026A22F001020262026A43688469D5
:101D400024F073050C682C4322F002058A682A43AC
:101D50000A4DA8420BD122F00805CA6823F440734B
:101D60002A434D6922F004021D438B692B434360D3
:101D7000846149684163026230BD0000002C01406B
:101D800030B5026A22F010020262026A4368846976
:101D90000D6824F4E64444EA05248D6822F020020C
:101DA00042EA05120B4DA8420ED1CD6822F0800206
:101DB00042EA05124D6923F4406343EA85038D69C5
:101DC00022F0400243EA85034360846149688163ED
:101DD000026230BD002C014030B5026A22F48072EC
:101DE0000262036A4268C46923F4007324F0730535
:101DF0000C682C438D6843EA05230C4DA8420ED194
:101E0000CD6823F4006343EA05234D6922F4405270
:101E100042EA05128D6923F4806342EA05124260AA
:101E2000C4614968C163036230BD0000002C0140F9
:101E300030B5026A22F480520262046A4268C369C1
:101E40000D6823F4E64343EA05238D6824F4005427
:101E500044EA0534064DA84204D14D6922F480427B
:101E600042EA85124260C36149680164046230BD80
:101E7000002C014010B5036A046A24F001040462D6
:101E8000846924F0F00444EA021423F00A020A43AD
:101E90008461026210BD10B5036A23F0100303626F
:101EA0008369046A23F4704343EA023224F0A003F6
:101EB00043EA01118261016210BD10B5406A002140
:101EC000C185C184FFF76FFB10BD0168CA6822F4A9
:101ED0009072CA6001684A6922F001024A612021B9
:101EE00080F83A10704710B590F83A10222901D0C6
:101EF000022010BD8168B1F5805F11D00169002911
:101F000001681FD0496801F07F03816A4A1C826220
:101F10000B70C18D491E0904090CC18518D02BE036
:101F20000269816A002A0268526805D0D2B20A802A
:101F3000816A491C8162ECE7C2F308020A80816A67
:101F4000891CF7E74A68816A4B1C83620A70E0E7E4
:101F50000168CA6822F02002CA600168CA6822F4D7
:101F60008072CA6001684A6922F001024A61202138
:101F700080F83A10FFF73CFC002010BD2DE9F0413D
:101F8000044600680169E26821F44051114301618F
:101F90002169A0680843616908432168CA6841F261
:101FA0000C639A430243CA6020684169A26921F424
:101FB0004071114341611E492068642532268842E0
:101FC00002D1FEF77FFE01E0FEF76CFE00EBC001E0
:101FD00001EB001160686FF018078000B1FBF0F2B0
:101FE000B2FBF5F2B1FBF0F37A4303EB8202B1FBF3
:101FF000F0F306EB0212B2FBF5F2B3FBF5F302F0DD
:10200000F00202EB0312B1FBF0F3B1FBF0F0B0FB16
:10201000F5F0784303EB800006EB0010B0FBF5F021
:10202000216800F00F0010448860BDE8F0810000D6
:102030000038014090F83910212901D00220704762
:102040008168B1F5805F016A0BD04A1C02620268A8
:1020500009785160C18C491E0904090CC1840ED055
:1020600017E009880268C1F308015160016900297D
:10207000016A02D0491C0162ECE7891CFBE7016898
:10208000CA6822F08002CA600068C16841F040015D
:10209000C160002070472DE9F041984617460E4672
:1020A0000446069D1DE0681C1BD02DB1FEF7C6FC42
:1020B000A0EB0800A84214D92068C16821F4D071AF
:1020C000C1602068416921F001014161202084F84C
:1020D000390084F83A00002084F838000320BDE875
:1020E000F0812068006836EA000004D00020B84281
:1020F000D9D00020F3E70120F9E700000148FFF7FD
:1021000053BA000074000020FEE700000FB4054B36
:1021100010B503A9044A029800F0EAF810BC5DF873
:1021200014FB0000212A0008300000200907090ED6
:10213000002804DB00F1E02080F80014704700F074
:102140000F0000F1E02080F8141D704702E008C87D
:10215000121F08C1002AFAD170477047002001E021
:1021600001C1121F002AFBD1704700002DE9FF5F5B
:1021700082B00021DDE90430020DDDF840B00343F8
:1021800018D044F61050A2F2FF32424315141198B1
:1021900001281FD0A5EB0B00401C5FEA000A4FF09E
:1021A00000064E4FDFF83891B046504615D5CAF1BB
:1021B000000413E0119801244AA3012801D16FEA19
:1021C0000B010298119AC0E90031C0E9024206B041
:1021D000BDE8F09FCBF10000DFE704460021404A54
:1021E000491842EB0450CDE9001012E0E00707D097
:1021F00032463B4640464946FEF75DF880468946F2
:1022000032463B4610461946FEF755F806460F463D
:102210006410002CEAD1DDE90401DDE90023BAF104
:10222000000F06DAFEF747F842464B46FEF743F842
:1022300005E0FEF7B2F842464B46FEF7AEF804461C
:102240000E460022284BFEF713FA03D84FF0FF305A
:10225000014607E00022254B20463146FDF784FF6A
:10226000FEF7EDF9102409E0002C0ADB0A22002316
:10227000FEF736F9039B30321A55641E50EA01020C
:10228000F2D1641C039AC4F111031444119A012A77
:1022900003D0012208430DD10AE0084304D00020F6
:1022A0004FF0110B119072E7A3EB0B056D1E0DE0C3
:1022B0005B4504DD4FF0000205F1010504E003DA9F
:1022C0004FF00002A5F10105002AECD00298119907
:1022D000C0E90231C0E9004579E700000000144080
:1022E0000000F03F300000000000F0430000E03F3D
:1022F0002DE9FF4F95B09B468946064600250FE223
:10230000252877D100242746F84A0121059400E0CA
:10231000044316F8013F203B01FA03F01042F7D1C5
:1023200030782A2811D06FF02F033078A0F13002D6
:10233000092A16D8059A44F0020402EB820203EB44
:1023400042021044761C0590EFE759F8042B0592E1
:10235000002A03DA504244F40054059044F0020489
:10236000761C30782E2816D116F8010F44F004049C
:102370002A280DD06FF02F023078A0F13003092BFE
:1023800009D807EB870302EB4303C718761CF3E772
:1023900059F8047B761C30786C280FD006DC4C286A
:1023A00017D068280DD06A2814D104E0742810D002
:1023B0007A280FD10DE044F400140AE044F48014AC
:1023C00001E044F440147278824202D104F5801492
:1023D000761C761C307866280BD013DC582877D012
:1023E00009DC002875D04528F6D04628F4D04728C7
:1023F0001AD19DE118E0632835D0642879D065288A
:1024000012D195E1702873D008DC6728F1D06928D3
:102410006FD06E280DD06F2806D1B5E073282CD070
:10242000752875D0782874D05A46179990476D1C36
:1024300075E1C4F30250022809D003280DD0D9F861
:10244000001004280DD00D6009F1040967E1D9F8E6
:102450000010EA17C1E90052F6E7D9F800100D8024
:10246000F2E70D70F0E719F8041B8DF8001000205A
:102470008DF80100EA46012003E059F804AB4FF063
:10248000FF3061074FF0000102D40DE008F10101B7
:102490008846B9420FDA8045F8DB1AF8081000299F
:1024A000F4D108E008F1010188468142FADB1AF80C
:1024B00008100029F6D105985B46A0EB08072146D5
:1024C0003846179A00F094FA284400EB080507E014
:1024D0004DE029E10DE01AF8010B5A461799904793
:1024E000B8F10108F7D25B4621463846179A13E146
:1024F00042E00A220092C4F302524FF0000A022A7C
:1025000008D059F804CB032A4FEAEC710AD00DE049
:1025100029E02AE009F1070121F00702F2E802C1EF
:10252000914609E00FFA8CFC4FEAEC71042A03D1C2
:102530004FFA8CFC4FEAEC71002907DA0A460021B9
:10254000DCF1000C61EB02012D2202E0220504D532
:102550002B228DF80420012203E0E20701D0202283
:10256000F7E7904659E00A2102E010220DE0102121
:102570004FF0000A00910BE010224FF0000A44F0E7
:1025800004040827009203E008224FF0000A00929A
:10259000C4F30252022A05D059F804CB0021032AC1
:1025A00008D009E009F1070121F00702F2E802C1B1
:1025B000914605E01FFA8CFC042A01D10CF0FF0CB7
:1025C0004FF00008220728D5702806D0009B83F022
:1025D000100353EA0A0305D00EE040228DF80420D0
:1025E000012208E05CEA010206D030228DF80420C6
:1025F0008DF8050002229046009B83F0080353EA01
:102600000A030AD15CEA010201D1620705D5302232
:102610008DF804204FF001087F1E582804D034A004
:1026200003900EA802900DE036A0F9E753466046ED
:10263000009AFDF755FF84460398825C0298401E7D
:10264000029002705CEA0100F0D1029806A9081A13
:1026500000F1200A600702D524F4803400E001274D
:10266000574502DDA7EB0A0000E0002000EB0A015D
:10267000009005984144401A0590E00306D45B465B
:102680002146179A059800F0B3F90544002706E0A3
:1026900001A85A46C05D179990476D1C7F1C47459D
:1026A000F6DBE0030CD55B462146179A059800F04F
:1026B0009FF9054404E030205A46179990476D1C55
:1026C0000099481E00900029F5DC08E00298029964
:1026D0005A460078491C0291179990476D1CBAF12F
:1026E0000001AAF1010AF1DC65E1000009280100FE
:1026F0003031323334353637383961626364656678
:102700000000000030313233343536373839414239
:10271000434445460000000000F058F90544761C8B
:10272000307800287FF4ECAD19B02846BDE8F08F72
:10273000620700D4062709F1070222F0070CFCE823
:102740000223E14603F000485FEA080C02D00FF2D2
:10275000702C0DE05FEA045C02D50FF2682C07E0F4
:102760005FEAC47C02D00FF2602C01E0AFF2700C83
:102770004FF0FF3823F00043CDF850C065280CD04F
:1027800006DC452809D046281DD047283DD13DE02C
:10279000662818D067287ED138E00021112F01DB90
:1027A000112000E0781CCDE9000106A90EA8FFF772
:1027B000DDFCDDE90F010E9A03910021009207F183
:1027C000010A04914DE04FF000400097CDE901105F
:1027D00006A90EA8FFF7CAFCDDE90F0203920E9BC3
:1027E00011990022DDF80CA00093049211B9791C14
:1027F00000EB010AB7EB0A0004D4C0F1FF3007F187
:10280000010A0490AAEB0700019044E0012F00DACE
:1028100001270021112F01DD112000E03846CDE90C
:10282000000106A90EA8FFF7A1FCDDE90F010E9A31
:102830000391002104910092BA4621070CD4039918
:10284000514500DA8A46BAF1010F05DD009AAAF176
:102850000101515C302908D0B84202DA10F1040FAE
:1028600006DA0121CDE9011015E0AAF10101E9E73D
:10287000002805DC049901440491AAEB000102E060
:10288000411C514500DD8A460499401A401C0190C4
:102890004FF000400290200704D40198504501DB1E
:1028A000CDF8048000208DF84F0002980DF14F07FD
:1028B000B0F1004F25D02B200E9002984FF0020867
:1028C00000280CDA404202902D200E9007E00A21E9
:1028D0000298FDF7EFFD3031029007F8011DB8F1C5
:1028E0000001A8F10108F2DC02980028EFD1791E5E
:1028F0000E980870307800F0200040F0450007F88E
:10290000020D12A8C01B00F107081498007800B14E
:10291000012000EB0A01019801EBE07105984144A8
:10292000401A401E0590E00306D45B462146179AE4
:10293000059800F05DF805441498007818B15A46DF
:10294000179990476D1CE00324D55B462146179AE2
:10295000059800F04DF805441CE00498002807DBBA
:10296000DDE90301884203DD0098405C179901E02E
:10297000179930205A469047049805F10105401CEC
:1029800004900198401E019004D12E205A461799B8
:1029900090476D1CBAF10001AAF1010ADDDC05E0E7
:1029A00017F8010B5A46179990476D1CB8F10001B2
:1029B000A8F10108F4DC5B462146179A0598ABE6BE
:1029C0002D0000002B000000200000002DE9F04148
:1029D000044600251E461746880404D405E03946FF
:1029E0002020B0476D1C641EF9D52846BDE8F08153
:1029F0002DE9F041044600251E469046C80301D546
:102A0000302700E02027880404D505E041463846F9
:102A1000B0476D1C641EF9D52846BDE8F081000062
:102A200013B54FF6FF73012269460248FEF72AFFED
:102A300000981CBD74000020FEF70EF8FFF7D0F8D8
:102A4000FEF7C6FFFFF71EF8FFF76AF84448FEF7E7
:102A50007DFB012243494448FEF7A0FE49F27C2653
:102A60007710DFF808913F4C42F29F4800254FF461
:102A70007A7A4FF4FA7BA0780528FCD2DFE800F0E0
:102A80000324570A3D00607808B1A070F3E7FFF710
:102A90008FF8F0E7607858B110214846FDF7C4FF81
:102AA00030B1E07838B1012807D0022807D008E01B
:102AB000A5706570DFE7012132E0012133E00121DB
:102AC0002BE0FEF73DFFD6E760780028F0D010211C
:102AD0004846FDF7A9FF0028EAD0E07828B1012890
:102AE00005D00228C7D1012131E0012132E00121C6
:102AF00033E000BFFFF734F8BDE760780028D7D097
:102B000008214846FDF790FF0028D1D0E07830B189
:102B1000012807D00228D4D10021404604E000213A
:102B2000304601E000213846FFF71AF8C9E760781F
:102B30000028BDD008214846FDF776FF0028B7D011
:102B4000E07830B1012807D0022894D10021C820B4
:102B5000D0E700215046CDE700215846CAE70000E3
:102B60003400002000000020740000200008014014
:102B70002DE9F05F8A46DDE90C67DDE90A898346C5
:102B8000A2EB0A00FDF778FC04460D4642464B4690
:102B900030463946FDF789FB06460F46ABEB0A0087
:102BA000FDF76AFC3B463246FDF785FB22462B4685
:102BB000FDF7F3FB42464B46BDE8F05FFDF7D4BAA4
:102BC00000000000000000000102030406070809DD
:102BD0000000000001020304F82B000800000020A0
:102BE000340000004C2100082C2C00083400002088
:102BF000840400005C2100080000000001010000C6
:102C000000000000000000000000000000000000C4
:102C100000000000000000000100000010000000A3
:0C2C2000000000000024F4000000000090
:04000005080000ED02
:00000001FF
